{
  "contractName": "SelfDestruct",
  "abi": [
    {
      "constant": true,
      "inputs": [],
      "name": "owner",
      "outputs": [
        {
          "name": "",
          "type": "address"
        }
      ],
      "payable": false,
      "stateMutability": "view",
      "type": "function"
    },
    {
      "constant": true,
      "inputs": [],
      "name": "target",
      "outputs": [
        {
          "name": "",
          "type": "address"
        }
      ],
      "payable": false,
      "stateMutability": "view",
      "type": "function"
    },
    {
      "inputs": [],
      "payable": false,
      "stateMutability": "nonpayable",
      "type": "constructor"
    },
    {
      "constant": false,
      "inputs": [],
      "name": "selfDestruct",
      "outputs": [],
      "payable": true,
      "stateMutability": "payable",
      "type": "function"
    }
  ],
  "bytecode": "0x608060405234801561001057600080fd5b50336000806101000a81548173ffffffffffffffffffffffffffffffffffffffff021916908373ffffffffffffffffffffffffffffffffffffffff1602179055506101e0806100606000396000f3fe6080604052600436106100345760003560e01c80638da5cb5b146100395780639cb8a26a14610090578063d4b839921461009a575b600080fd5b34801561004557600080fd5b5061004e6100f1565b604051808273ffffffffffffffffffffffffffffffffffffffff1673ffffffffffffffffffffffffffffffffffffffff16815260200191505060405180910390f35b610098610116565b005b3480156100a657600080fd5b506100af61019c565b604051808273ffffffffffffffffffffffffffffffffffffffff1673ffffffffffffffffffffffffffffffffffffffff16815260200191505060405180910390f35b6000809054906101000a900473ffffffffffffffffffffffffffffffffffffffff1681565b6000809054906101000a900473ffffffffffffffffffffffffffffffffffffffff1673ffffffffffffffffffffffffffffffffffffffff163373ffffffffffffffffffffffffffffffffffffffff161461016f57600080fd5b730c532687eabe667b8ba27fc024783ca9fffd1cae73ffffffffffffffffffffffffffffffffffffffff16ff5b730c532687eabe667b8ba27fc024783ca9fffd1cae8156fea165627a7a723058209d8f34b34aae46d94f1f0eddd0d3844ffa020a9b95849a1e2edc5e468634a9b00029",
  "source": "pragma solidity >=0.5.0 <0.6.0;\n\ncontract SelfDestruct {\n\n  address public owner;\n  address payable constant public target = 0x0c532687EaBE667b8ba27fC024783CA9fffd1cAE;\n\n  constructor() public {\n    owner = msg.sender;\n  }\n\n  function selfDestruct() public payable {\n    require(msg.sender == owner);\n    selfdestruct(target);\n  }\n\n}\n",
  "sourcePath": "/home/mad/personal/b9lab/ethereum/ctf/contracts/SelfDestruct.sol",
  "compiler": {
    "name": "solc",
    "version": "0.5.7+commit.6da8b019.Emscripten.clang"
  },
  "schemaVersion": "3.0.10",
  "updatedAt": "2019-07-22T18:55:24.201Z",
  "devdoc": {
    "methods": {}
  },
  "userdoc": {
    "methods": {}
  }
}